:10000000000002205D0300004503000047030000DC
:10001000490300004B0300004D03000000000000F6
:100020000000000000000000000000004F0300007E
:1000300051030000000000005303000055030000BE
:10004000D125000061BB0300A1F9030057030000A4
:100050005703000057030000F12800005703000079
:100060005703000057030000570300005703000028
:100070005703000051960300570300005703000088
:1000800057030000611A00005703000057030000E7
:1000900057030000570300005703000057030000F8
:1000A00057030000570300005703000057030000E8
:1000B000570300005703000000000000000000008C
:1000C00057030000570300005703000057030000C8
:1000D000818E030057030000570300005703000000
:1000E00057030000000000000000000000000000B6
:1000F000000000005703000000000000570300004C
:1001000000000000000000000000000000000000EF
:1001100000000000000000000000000000000000DF
:1001200000000000000000000000000000000000CF
:1001300000000000000000000000000000000000BF
:1001400000000000000000000000000000000000AF
:10015000000000000000000000000000000000009F
:10016000000000000000000000000000000000008F
:10017000000000000000000000000000000000007F
:10018000000000000000000000000000000000006F
:10019000000000000000000000000000000000005F
:1001A000000000000000000000000000000000004F
:1001B000000000000000000000000000000000003F
:1001C000000000000000000000000000000000002F
:1001D000000000000000000000000000000000001F
:1001E000000000000000000000000000000000000F
:1001F00000000000000000000000000000000000FF
:10020000314932480A1A02D0072291438D463049BB
:1002100030480A1A06D00722914381F30988022246
:1002200082F314882C482D492D4A00F03CF82D48C3
:100230002D492E4A00F037F82D482E492E4A00F05D
:1002400032F82E482E492F4A00F02DF82E482F491B
:100250002F4A00F028F82F482F49304A00F023F8A1
:100260002F483049304A00F01EF83048304900220B
:1002700000F024F82F483049002200F01FF82F4AE0
:1002800090471F481F49884205D00268043003B4D4
:10029000904703BCF7E700208646EC46002000218B
:1002A000274A9047FEE7884207D0521A05D00378C4
:1002B00001300B700131013AF9D17047884202D008
:1002C00002700130FAE770470000022000E00120D0
:1002D0000000022000000220547C040000000020E6
:1002E000C0000020B8030000B8030000ACFB03000E
:1002F000547C0400000000200000002018FC0300D3
:1003000018FC030018FC030018FC030018FC030091
:1003100018FC030018FC030018FC0300537C0400C5
:10032000147D0400C0000020C0000020C000002098
:10033000771B0120781B01207C1B01208503000016
:1003400075320000FEE7FEE7FEE7FEE7FEE7FEE7A8
:10035000FEE7FEE7FEE7FEE700F002B8FFF7FCBFAE
:100360000F484FF00701884385460E4880470E48E6
:10037000016841F470010160BFF34F8FBFF36F8FCD
:10038000FFF73EBF09480A490A4A884207D0521A75
:1003900005D0037801300B700131013AF9D1704773
:1003A000000002203D0E000088ED00E018FC030074
:0803B000000000200000002005
:1003B80000487047701B0120FEE7704707B5044BE3
:1003C8000093044A402300F032F803B05DF804FBC0
:1003D800E1030000C10000202DE9F84388461446D7
:1003E800B2B10F4B0F4E0325002743F001092246F7
:1003F80008EB0701002003F0E1F80744241A48B984
:1004080033782BB14FF47A40C847013D02D135709B
:10041800BDE8F88301233370002CE8D1F8E700BF6A
:1004280020FC0300C0000020704703F013B9F0B5AA
:1004380095B01D46164608460C4601F053FF1A9B18
:100448000D93CDE9086500252B46082205A920460D
:100458000A958DF82C500C9501F060FF079B0293CC
:10046800069B03939DF814308DF8115003F0030296
:10047800012A1DD1BDF81420059DC3F3C203C2F3A0
:1004880083168DF81030B20008230EA9204601F01B
:1004980045FFC5F3952508AB0093324602AB0EA97C
:1004A800284600F051FB204601F020FF15B0F0BDB2
:1004B800022AF8D1BDF81650C3F3C203C5F3891553
:1004C8008DF810300827082D2E4628BF08263B46F1
:1004D80032460EA9204601F021FFAD1B08AB02AA47
:1004E80031460EA8374400F093FB002DEBD1DAE734
:1004F80008B5FFF79AFF0448042100F08FFA034B70
:1005080001225A7108BD00BFF4FB0300000000205F
:10051800037813F0040216D003F00303012B03D071
:10052800022B09D0012070470A6800880232C0F304
:10053800831002440A60F5E70B684288023303EB34
:1005480092130B60EEE71046704700002DE9F04F5C
:10055800DFF824A10F4685B00446861C0020154606
:1005680001F040F9DAF800103960DAE90132134491
:1005780001335B1A0AF21C470AF583690AF2144828
:10058800B3421BD30020002D72D004F00F039B014F
:1005980043F0050363F30F00DAF80020DAF80830B7
:1005A8001340033332444AF823000020CAF80020DD
:1005B80001F01AF9012005B0BDE8F08F0121384695
:1005C80001F0CFFB484601F0E4FB404601F0E1FBB7
:1005D800DAF80400DAF808B0009000EA0B000330FB
:1005E8000AEB80006946FFF793FF009B50BB0BEABC
:1005F80003020AEB820203F1020CD2680192013372
:1006080003EA0B0B0AEB8B0B02F00302012ADBF85F
:100618000C10CDF800C023D0022A16D083464046DD
:1006280001F0BAFB10B1009BCAF8043059463846AD
:1006380001F097FBDAE901231344DAF800200133CB
:100648009B1A9DE70BEA0300C9E7BDF80630C3F320
:10065800891303334FEA114B0CEB93030093DEE746
:10066800BDF80430C3F383134FEA114B6344F5E735
:10067800A40544F006008FE7D40100200B4B0C487A
:10068800FF2210B59A600022C3F81824C3E900229B
:10069800C3F8142483F8202401F0DDFD044610B9C2
:1006A800044801F045FE204610BD00BFD4010020DB
:1006B80004FC03005CFC030030B50A4C71B10A4A23
:1006C8000A49121BD20800239A4201D1002030BDEA
:1006D80031F82350854202D00133F5E7034654F838
:1006E8003300F4E7ACFB0300F4FB03000000002038
:1006F800094B013903EBC000032909D8DFE801F0F1
:100708000A02040604207047007970474079704750
:100718000020704702207047ACFB0300034BD3E96D
:100728000030C31A58425841704700BFD401002016
:100738002DE9F04385B0FFF7F1FF0646002840F0A9
:10074800FA807E4CC4F81804BFF34F8F6368A5681D
:1007580000932B40033304EB83006946FFF7D8FE70
:10076800009B18B1D4F81824002A62D005EA0302C5
:10077800991C013304EB82022B4004EB8303D268FB
:10078800DB68029302F00303022B0192009163D10C
:10079800BDF806306A48C3F38917502FB84628BFFA
:1007A8004FF0500808F1080168F38F13C1F30901ED
:1007B800ADF8063001F067FD0646002800F0A68077
:1007C80001F090FD0023082201A9304601F09CFDAC
:1007D800009925EA01020132B8EB820F4FEA820341
:1007E80033D95FFA88F863B32940DDB2A8EB05086E
:1007F80003315FFA88F9A846524D04EB81010823BA
:100808004246304601F080FD3DB108F10803DBB2F5
:100818004A462946304601F077FD009B033703EB33
:1008280097070097D4F81834002B4BD1D4F81054FC
:100838005BE0226893428CD36260304605B0BDE825
:10084800F08340491D469946D9E7294003310823DA
:10085800424604EB8101DDE7012B57D1BDF8043096
:100868003748C3F38311062928BF062161F389138A
:10087800023101F00F018900ADF8043001F003FDE9
:100888000646002842D001F02DFD0023082201A9C8
:10089800304601F039FD0027BDF80420C2F3831269
:1008A800BB00974203F10803BCD200994A1C2940B7
:1008B8000331009204EB81010422304601F024FD4B
:1008C8000137E9E7304601F011FDFFF727FF80F017
:1008D8000100C6B2B1E7EB685B7923B12B683146FA
:1008E8001B6828469847EB681D68002DF3D13046F1
:1008F80001F0FCFC284600F075FFD4F818340BB959
:10090800009B6360002000F06FFFDEE7D4F810441E
:1009180054B90D4B0D480E49C01AC008000440F0E8
:10092800020000F063F8D0E7236820469B689847E8
:10093800E3681C68ECE700267FE700BFD4010020CD
:1009480004FC0300E0010020ACFB0300BCFB030037
:1009580044FC03002DE9F74F224E04460F46924609
:1009680001A901221846D6F808909B46FFF7EEFD2C
:1009780020B3019D4FF00008AA1CD84508EB0201DE
:1009880026D11948002101F0C9F980F310000004AC
:1009980040EA1440E4006B1C04F0380403EA09033D
:1009A80005EA090544F0010406EB8303033544EA2C
:1009B800881444EA8724D86046F8254096F82034FD
:1009C8001BB1FFF7B5FE0028FBD103B0BDE8F08FDF
:1009D80009EA010106EB81015AF82830CB6008F1D9
:1009E8000108CAE7D4010020F005002000231A46B8
:1009F800FFF7B0BF07B50123019201AAFFF7AAFFCD
:100A080003B05DF804FB07B5CDE9002302236A466D
:100A1800FFF7A0FF03B05DF804FB000030B50F4CF2
:100A2800D4F8102403460020114631B9D96808715A
:100A38004AB9C4F810340A6030BDC9680D798542D6
:100A480006D00968F1E7D26814680C601360F3E710
:100A580001300A28E8D14FF0FF30EDE7D40100203B
:100A680038B5084B0125D3F8104483F8205404B94D
:100A780038BDE3685D71236820465B689847E36882
:100A88001C68F4E7D401002030B5C38885B004465B
:100A98000D4633B1144A00921449154A284601F00C
:100AA800D5F9217A05291DD0637A4BB1A088FFF7C3
:100AB8001FFE104B104953F82020284601F0C6F9B4
:100AC800227A0E4BA08853F8222003920021FFF7C8
:100AD800F3FD039A0A490346284605B0BDE83040AD
:100AE80001F0B4B905B030BD88FC030070FC030008
:100AF80068FC0300ECFC0300B579040010FD03005A
:100B08008DFC030007B503460846197A052911D05C
:100B18005B7A2BB1094A0A49019001F097F90198CB
:100B28000849019001F092F9019803B05DF804EBCF
:100B380001F081B9002AF8D0F2E700BF88FC030071
:100B4800B5790400CD0D04002DE9F04385B01F46AA
:100B58000C9D002395F80C902B7306460C46904686
:100B680029463846FFF790FFB8F1060F09D8DFE8A5
:100B780008F00412181F283340003146284601F0B7
:100B880065F9002229463846FFF7BCFF85F80C9026
:100B980005B0BDE8F08322683146284601F056F9D1
:100BA800EFE7D4E900233146284601F04FF9E8E79A
:100BB800A36800933146D4E90023284601F046F99A
:100BC800DFE7E3680193A36800933146D4E9002383
:100BD800284601F03BF9D4E723690293E3680193BF
:100BE800A36800933146D4E90023284601F02EF982
:100BF800C7E76369039323690293E3680193A368D2
:100C080000933146D4E90023284601F01FF9B8E7DC
:100C180008292DE9F74F80460E4617461C463DD851
:100C280000251B7B2573214610460193FFF72CFFF7
:100C3800DFF88CA0DFF88CB0AE4232D918F8052066
:100C48005946204601F002F90135082DF4D11B4917
:100C5800DFF874A0DFF874B0204601F0F7F84FF021
:100C680000094E4524D918F809507E2D1ED828466B
:100C78003DF090FE002814BF2A462E2259462046F1
:100C880001F0E4F809F10109B9F1080FE9D10122ED
:100C980021463846FFF736FF019B237303B0BDE8B2
:100CA800F08F5146204601F0D1F8CDE72E22E5E736
:100CB8005146204601F0CAF8E4E700BFA1FC030052
:100CC8009DFC030097FC03009FFC0300A30C040099
:100CD800074B1B5C1F2B8ABF064A4FF0A04203F04C
:100CE8001F03D2F80405D840C04300F00100704744
:100CF80024FD030000030050074B1B5C1F2B86BF1D
:100D0800064903F01F034FF0A041012202FA03F342
:100D1800C1F80C35704700BF24FD030000030050E4
:100D2800074B1B5C1F2B86BF064903F01F034FF0C0
:100D3800A041012202FA03F3C1F80835704700BF49
:100D480024FD03000003005008B50020FFF7E8FF6A
:100D58000120FFF7E5FF0220FFF7E2FFBDE80840AA
:100D68000320FFF7DDBF08B50020FFF7C5FF01200E
:100D7800FFF7C2FF0220FFF7BFFFBDE808400320CE
:100D8800FFF7BABF0A4B185C1F288ABF094B4FF000
:100D9800A04300F01F00D3F804250121814021EA77
:100DA80002000A40C3F80805C3F80C25704700BFC5
:100DB80024FD0300000300500B2809D00C2809D09B
:100DC800182809D019280CBF03204FF0FF307047AE
:100DD800002070470120704702207047C20710B5F5
:100DE80004460CD54FF0A0430322C3F83427C3F8B8
:100DF8003827C3F83C27C3F84027FFF7A5FFA30708
:100E08000AD54FF0A0430C22C3F82C27C3F830278B
:100E1800C3F86027C3F8642710BD4FF08053D3F898
:100E280030210D2A03BFD3F83401B0FA80F040090D
:100E38000020704708B5FFF7F0FF40B14FF080433E
:100E48000022C3F80C21C3F81021C3F83825FFF796
:100E5800E4FF002846D04FF080524D4BD2F80414DE
:100E6800C3F82015D2F80814C3F82415D2F80C14C6
:100E7800C3F82815D2F81014C3F82C15D2F8141496
:100E8800C3F83015D2F81814C3F83415D2F81C1466
:100E9800C3F84015D2F82014C3F84415D2F8241426
:100EA800C3F84815D2F82814C3F84C15D2F82C14F6
:100EB800C3F85015D2F83014C3F85415D2F83414C6
:100EC800C3F86015D2F83814C3F86415D2F83C1486
:100ED800C3F86815D2F84014C3F86C15D2F8442446
:100EE800C3F87025FFF799FF48B14FF08043D3F856
:100EF8000024D20744BF6FF00102C3F80024254A3A
:100F0800D2F8883043F47003C2F88830BFF34F8FAB
:100F1800BFF36F8F4FF01023D3F80022002A03DBB2
:100F2800D3F80432002B2EDA1B4B0122C3F8042518
:100F3800D3F80024002AFBD04FF010221221C2F867
:100F48000012D3F80024002AFBD04FF010231222FD
:100F5800C3F80422104BD3F80024002AFBD0002247
:100F6800C3F80425D3F80024002AFBD0BFF34F8F21
:100F780008490A4BCA6802F4E0621343CB60BFF326
:100F88004F8F00BFFDE7064B064A1A6008BD00BF39
:100F980000C0004000ED00E000E001400400FA0558
:100FA800080000200090D003C30710B507D4F02331
:100FB800054A4008145C23401943115410BD090127
:100FC800C9B20F23F4E700BFC006002030B5094BB3
:100FD8001C78094B196800239C4202DC0022104649
:100FE80030BD11F83350854201EBC302F7D001330D
:100FF800F2E700BF90060020E006002013B5044683
:101008000191FFF7E3FF38B143682BB101992046FE
:1010180002B0BDE81040184702B010BD034B0448A9
:1010280019680022490800F0DEBA00BF94060020C3
:101038009806002010B5C0B2FFF7C8FF0446007834
:1010480001F044FC63785A1E53425341834208D14D
:10105800044BD3E90023134303D1BDE81040FFF745
:10106800DDBF10BDB806002038B5334A4308044632
:10107800D35CC2074CBF1B0903F00F030D46042BBA
:1010880059D8DFE803F003222A363900002952D064
:101098000121FFF789FF002000F0A4FB0120A4F143
:1010A8002003C4F12001254A20FA01F100FA03F3D4
:1010B8000B43A040D2E9004120430B43C2E900039F
:1010C800BDE83840002000F08FBB002918BF02217E
:1010D8002046BDE83840FFF767BF41B10321FFF75D
:1010E80063FF20460121BDE83840FFF787BF012193
:1010F800EEE701BB0421EBE709B10321E8E7FFF7BD
:1011080053FF29462046FFF779FF284600F06AFB7F
:101118000120A4F12003C4F12001084A20FA01F1BA
:1011280000FA03F30B43A040D2E9004124EA00008F
:1011380021EA0303C2E738BDC0060020B806002034
:101148002DE9F041124E134F00243378A34208DCF6
:10115800114BD3E90023134318D0BDE8F041FFF742
:101168005DBF3D6805EBC40815F8340001F0AEFB1F
:1011780098F801305A1E53425341181A41424141CE
:1011880015F83400FFF770FF0134DEE7BDE8F081A1
:1011980090060020E0060020B8060020092AF7B5CE
:1011A80005460C4616463ED901F0B8FAE8B11F4B81
:1011B8001F481D601F4B204F1C70204B0021202210
:1011C8001E603DF044FE1E4B00200021C3E90001D3
:1011D800013CE4B20326FF2C0DD11A4A1A4800211B
:1011E80003B0BDE8F04000F0F3B901F063FA00285D
:1011F800DDD003B0F0BD9DF8063015F834008DF849
:10120800046005EBC40223F007038DF8063001A93A
:1012180093788DF805303A4601F08AFA013CE4B239
:101228000028D8D0E5E70720E3E700BFE006002064
:10123800C0060020900600203D1000009406002003
:10124800B80600204911000034FD030070B5084DB0
:10125800084E00242B789C4201D3002070BD3368CF
:10126800012113F8340001F0E3FA0134F2E700BF7A
:1012780090060020E00600201FB50021039001AA77
:1012880044F20100CDE9011100F004F805B05DF861
:1012980004FB000038B572B6FFF7E2FBFFF748FA27
:1012A8000028FBD1104B114C114D1249E41AE408E7
:1012B800240444F00100FFF799FBD5F8F030DB0770
:1012C80000D500BE0C4944F00200FFF78FFBBFF3C6
:1012D8004F8FEA68094B02F4E0621343EB60BFF3F7
:1012E8004F8F00BFFDE700BFACFB0300BCFB030052
:1012F80000ED00E038FD030044FD03000400FA059A
:101308004B1C30B5DB00044612F003009BB20DD134
:10131800074D2A601A44074B1A60074B1870074B91
:101328001870074B1C80074B198030BD0720FCE75D
:10133800EC060020E8060020E4060020F406002061
:10134800F0060020F20600202DE9F843DFF8AC8013
:10135800B8F800308B4206460D46174640D30020A9
:1013680000F040FA204B214A214819780088147867
:10137800E3B2844238BF0133C9B234BFDBB20023C1
:10138800994226D014781178CBB2884286BF0133AF
:10139800DBB200231370002000F026FA4FF6FF732B
:1013A8009C421FD0134B1B6843F8347003EBC409ED
:1013B80096B18DB1104BB8F800001B682A4631462B
:1013C80004FB00303DF01AFDA9F804500020BDE8E8
:1013D800F8834FF6FF74DEE70020A9F80400F6E76B
:1013E8000920F4E70420F2E7F4060020E4060020D0
:1013F800F2060020EC060020E8060020F006002097
:1014080070B5104C104D22782B789A4200D170BDDF
:101418000E480F4A2378126806880E4802EBC3016B
:10142800006852F83320898803FB060090470A4970
:1014380022780988D3B2914286BF0133DBB20023F8
:101448002370E0E7F4060020E4060020F006002000
:10145800EC060020E8060020F206002010B5D0E9CE
:101468000243D1E90202A04272EB03032CBF012020
:10147800002010BDD0E900301847000008B50A4820
:1014880000F0D5FA094AD2E90031C018084BD3E96F
:10149800002341F10001904271EB030303D210F1E4
:1014A800807041F1000108BD0C00002000070020F9
:1014B8007807002037B505460C460A4801A900F010
:1014C800B8FB60B10570446001A9064800F0DBFB79
:1014D80018B1054800F0B0FA002003B030BD042070
:1014E800FBE700BF640700200C0000201C4B37B549
:1014F8001D78044675B380B3037F03F0FF054BB333
:10150800FFF7BCFFD4E90223904271EB03031BD31E
:10151800236903B9237763690093124AA369019386
:1015280008216846FFF710FF08B1FFF7A5FE2269FA
:101538007AB1237F03F0FF0563B1D4E902319B1828
:1015480041F10001C4E902310748214600F0F9FEE3
:1015580000E01546284603B030BD0546FAE700BF4F
:10156800080700207D14000060FD030013B5114B2F
:1015780011491868019008231048582200F046FBCA
:10158800044698B90E4A0F4801A900F03DF90446EF
:1015980060B90C48012100F02DFA01230A4A0948D4
:1015A800194600F08FF9094B01221A70204602B043
:1015B80010BD00BF5CFD03000C070020640700207D
:1015C800391600000C000020FFFF7F0008070020EC
:1015D8003AB103685A614A1E5142514119610020CB
:1015E80070470720704738B5037F04460D4683B916
:1015F8008261FFF743FF2369281841F10001C4E91C
:10160800020103B1256121460020BDE83840FFF7FB
:1016180051BF002038BD0023014603770120FFF7A2
:1016280049BF0000014800F002BA00BF0C000020CA
:101638002DE9F347064600F0E5F940B1584AD2E9EA
:10164800003113F1807341F10001C2E9003100213A
:10165800304600F0E6F938B1524C236823B12068CF
:10166800FFF744FF002323600121304600F0D9F939
:1016780020B1FFF703FF4C4BC3E900014B48494D2C
:101688004B4C4C4F01A900F00EFB002842D1DFF86B
:101698002081444CDFF82491404600F068FE23681E
:1016A800002872D07BB12368D0E90252D3E9021333
:1016B8008D4272EB03032AD223681B7F1BB121687A
:1016C800404600F03EFE404600F04BFED0E9027A6C
:1016D8000546FFF7D3FE381A6AEB010A01287AF1AA
:1016E800000345DBB0F5350F40D3FFF79BFF324AC7
:1016F80002444FF496030021484600F003F90028FD
:101708003ED1236813B9304600F0D4F8256002B002
:10171800BDE8F0870378012B1DD0022B09D14FF0CB
:101728000008204600F01DFE002836D080F81C80F6
:10173800F7E73BB941680B7F23B901230B772046B4
:1017480000F0FFFD01A9194800F0D8FA01A91748CF
:1017580000F0A9FA99E741682B68994202D1002361
:101768002B60EFE7204600F005FEEBE7AA68C0E72C
:101778000021484600F04BF92846FFF7B7FE01E084
:101788000D28F9D00023236086E7002BBFD130460F
:1017980002B0BDE8F04700F091B801233B70D1E7F3
:1017A8000007002080070020780700206407002039
:1017B80060FD030008070020FFFFB4000C000020B4
:1017C80072B6024A13680133136070478407002019
:1017D800034A1368013B136003B962B6704700BF40
:1017E80084070020FFF7ECBFFFF7F2BF435882B031
:1017F8003BB10023435043580193019B012002B0A1
:1018080070471846FBE70000F8B5224B4579224E91
:1018180043F82520214A224B9B1A06EBC502DB0818
:1018280012791B04EF0032B143F002001D49FFF7A3
:10183800DDF80820F8BD02680C88C2F8084590F960
:10184800044002798978002CADBF04F1604CDFF8C0
:101858005CC002F00F0E0CF5614C4FEA4111C9B2A1
:10186800B4BF0CF80E108CF8001364090121DFF8DE
:1018780040C002F01F0201FA02F24CF82420F219CB
:1018880046F83500117143F003000749FFF7AEF839
:101898000020CFE79007002088070020ACFB03005A
:1018A800CCFB03006CFD03008EFD030014ED00E08B
:1018B80000E100E0036801221A6070470368012212
:1018C8005A60704773B501F15005AD000068ADB2BC
:1018D8004FF480348C400026C0F80843C0F84843D1
:1018E800465101F5A8714559019522F07F42019DA5
:1018F80040F82120C0F844430BB1C0F8044302B0BB
:1019080070BD00002DE9F74F0D4622F07F440268B4
:101918004FF4803705F150068F408046B60002EB41
:101928008500C2F84873B6B2C2F80873D2F8041535
:1019380099464FF0000BD0F84035C0F8401542F8F2
:1019480006B05B1A9259009223F07F43012B009A4C
:101958004FEA850A0CD1264B4FF4806043F001030F
:101968009847D8F8003043F806B09B590193019B7B
:10197800D8F80010D1F80465C1F84473A31B23F00C
:101988007F43012B1CD11A4B05F5A875013443F090
:10199800010341F825404FF480609847D8F800309B
:1019A800D3F804359E4209D1D8F800300020C3F896
:1019B8004473C3F8047303B0BDE8F08F0D20FAE751
:1019C8008A44C9F1FF13CAF84045D1F80405221A20
:1019D800013A22F07F4203F57F439342EED3002A77
:1019E800E2D10134CAF84045D1F804359842DAE723
:1019F800A0FD030003680222C3F8442309B1C3F819
:101A08000423704700684FF48271FFF7EFBE4FF46C
:101A1800803303FA01F10368C3F84813C3F80813C5
:101A2800704750318900006889B2FFF7DFBE03684C
:101A3800D3F804057047000090F9043001215A09D1
:101A480003F01F0301FA03F34032024941F8223040
:101A5800704700BF00E100E0024B034A1B681068B2
:101A6800184700BF90070020880700204109064A50
:101A7800012300F01F0003FA00F052F82130184348
:101A880042F82100704700BF9407002010B50024D9
:101A980020460134FFF7EAFF592CF9D1024B012205
:101AA8001A70002010BD00BFA0660020314B1B78C3
:101AB8002DE9F041002B50D0002851D000294FD0FB
:101AC8000C68631EB3F5306F4DD22B4B2B4DDFF8EE
:101AD800B0C000229E4653F8046B55F8047BB4420C
:101AE80003D85CF82260BE4205D1592F03D80132D1
:101AF800072AF0D10022224B224C53F8223054F806
:101B08002240214D582B31D83F2B06D94F2B1FD9B6
:101B1800542B34BF0422052200E002225F095EF83C
:101B2800226055F8272003F01F0C22FA0CF818F051
:101B3800010F0FD0012303FA0CF322EA0302134B1F
:101B480045F827201C4404600E600020BDE8F081A1
:101B58000322E3E734440133D4E748F20810F5E7F9
:101B680048F20E10F2E748F20710EFE748F20410C7
:101B7800ECE700BFA0660020E8FD0300B0FD03000D
:101B880004FE0300CCFD030094070020A0070020FA
:101B980013B54843019001A9002468460094FFF753
:101BA80085FF014630B9DDE900023DF050F90098A3
:101BB80002B010BD0094FAE7114B1B7830B402460E
:101BC800ABB1A0B100230F4D0F4C184659198A42EA
:101BD8000FD03F2810D94F2810D953288CBF052182
:101BE800042154F82110013059280B44EED130BC9F
:101BF800704730BCFFF73ABF0221F2E70321F0E754
:101C0800A0660020A0070020E8FD030010B561B120
:101C1800B2FBF3F403FB1424A4B244B9C0E90014E2
:101C280084608281C381204610BD0E20FCE7092014
:101C3800FAE737B550E8013F9DB2C4892544848945
:101C4800A54228BF2D1B0489A54202BFBFF32F8FD1
:101C5800002207E0C5EA030540E80154002CE9D159
:101C68004FF001028DF803200193019A0A609DF854
:101C7800031001F0FF0321B1006810FA82F003B0ED
:101C880030BD1846FBE70A884B889A4209D150E8CC
:101C9800012FC2EA024240E80123002BF7D10120BC
:101CA80070470020704737B550E8023F1FFAA3F588
:101CB800C488A54202BFBFF32F8F00220DE0C4895C
:101CC80025448489A54228BF2D1BC3EA054540E861
:101CD8000254002CE8D14FF001028DF80320019343
:101CE800019A0A609DF8031001F0FF0321B1006812
:101CF80000EB124003B030BD1846FBE70A884B885A
:101D08009A4209D150E8022FC2EA224240E802234F
:101D1800002BF7D1012070470020704710B503460B
:101D280053E8000F0A4643E8002494F0000FF7D167
:101D380010BD10B5034653E8002F42EA010043E8FE
:101D4800000494F0000FF6D110BD10B5034653E817
:101D5800000F00EA010243E8002494F0000FF6D1D6
:101D680010BD10B5034653E8002F02EB010043E80D
:101D7800000494F0000FF6D110BD10B5034653E8E7
:101D8800002FA2EB010043E8000494F0000FF6D105
:101D980010BD0121FFF7CDBF0021FFF7D6BF10B559
:101DA80090B1D0E9012301689B1ADBB20A60013BBC
:101DB800DBB2FF2B026802D10020107110BD116840
:101DC8004C1C14600B70F2E70E20F7E738B5044698
:101DD8000020FFF707FD226863681168994213D94C
:101DE800481E106011F8013CE568218A01FB035583
:101DF800A36811791B1ADBB2994200D21371002033
:101E0800FFF7F2FC284638BD0025F8E738B5054647
:101E180000200C46FFF7E6FC2A681368591C11607D
:101E2800E968641A298AB4FBF1F41C70BDE83840EB
:101E38000020FFF7D9BC826810B504462AB143696F
:101E48000168006998470023A36010BD0EB403B56C
:101E5800039921B104AB01AA019300F06FF802B015
:101E68005DF804EB03B07047826830B40468551C11
:101E78008560A154D0E901329A4202D330BCFFF701
:101E8800DABF30BC704700002DE9F84F9846DDE90D
:101E98000A43154682460F460A464FF00109AA42F0
:101EA8000FD2C14538BFC14613F0010B01D16CB93F
:101EB80000240126B8F1010F1BD908F1FF386E4341
:101EC800F8E709F10109B2FBF5F2E8E79B070ED53F
:101ED800B8F1000F0CBF30262026A145E9D2013CFD
:101EE80031465046FFF7C0FF002CF6D1E0E7202628
:101EF800F3E7B7FBF6F39D42E1D9DFF83C80B7FB87
:101F0800F6F3504618F8031006FB1377FFF7ACFFFB
:101F18003346AB42B6FBF5F6F1D2BBF1000F02D067
:101F28000CB1A14501D3BDE8F88F20215046013CF2
:101F3800FFF79AFFF4E700BF20FE03002DE9F74FF3
:101F4800054617468846002900F03E8118F8011B0F
:101F580049B92B7B002B00F03781284603B0BDE838
:101F6800F04FFFF768BF252940F0B780002698F8A2
:101F780000302D2B424608F1010823D0302B24D005
:101F88002B2B25D000242A2B02F1010123D13B68F9
:101F98001A1D1B683A601C440A4613782E2B26D15A
:101FA80001324FF0000A104610F8011BA1F1300C65
:101FB800BCF1090F1DD80A2303FB0A13A3F1300A49
:101FC8000246F0E746F00106D1E746F00206CEE702
:101FD80046F00406CBE711F8013CA3F130000928CC
:101FE800DBD80A2202FB0434303C0A46CBE74FF028
:101FF800000A12F8011B01F0FB0068289046F8D08F
:10200800782909D86F290CD8632962D022D82529C4
:1020180063D0582900F0888098F80030002B95D1BB
:1020280097E770390829F7D801A353F821F000BFC2
:10203800AB210000212000002120000041210000E8
:10204800212000001F210000212000002120000085
:1020580031210000642901D06929DDD13A68D2F81C
:102068000090111D89EAE9723960A2EBE9724FF01C
:10207800010B092A35DCD34538BFD3462CB1B9F159
:10208800000F01DB720700D5013CB30702D5BAF196
:10209800000F03D0F00701D44CBB0024B9F1000FA6
:1020A8002DDAC9F100092D212846FFF7DDFE06F0DB
:1020B8000302022A04D1BAF1000F01D11CBB00248B
:1020C800CDE9004653460A2249462846FFF7DCFE7A
:1020D800A2E73B681A1D19783A602846FFF7C4FE44
:1020E8009AE70A230BF1010BB2FBF3F2C1E7A34510
:1020F800D4D220212846013CFFF7B6FECCE7710771
:10210800D5D52B21D0E7A345DAD230212846013C8A
:10211800FFF7AAFED2E73968CDE900460A1D3A6002
:1021280053460A220968D0E739680A1D3A60CDE9A2
:10213800004653461022F5E73B681A1D3A6016F030
:102148000106D3F8009024D1B9F1000F03D0484616
:102158003CF0F9FE0646B4421DD809F1FF3919F8DA
:10216800011F00293FF458AF2846FFF77DFEF6E728
:1021780028460136FFF778FE19F806100029F7D12E
:10218800A642BFF449AF20212846013CFFF76CFE68
:10219800F6E70026F0E720212846013CFFF764FE19
:1021A800D9E73B681A1D3A60302128461C68FFF7BA
:1021B8005BFE78212846FFF757FE00220823CDE969
:1021C80000322146102280E703B0BDE8F08F00BF3F
:1021D8002DE9F84FB0F806A04579D2F800B09DF87F
:1021E80028900AFB05F5043D88460BEB0301A9423C
:1021F80003F1040488BFA5EB030BB4FBFAF607460A
:102208000AFB1644C2F800B04EB9AAEB04055D45B6
:1022180028BF5D46BBF1000F04D1BDE8F88F3F68C9
:10222800013EF1E7043408EB06003C442A46B9F1C4
:10223800000F0DD02146ABEB050B3CF0DFFDDA4576
:102248002E443F6855464FF0000428BF5D46E1E73D
:1022580001462046EFE7FFF7A2BDF8B546790146EB
:10226800721E0546002393422D6803D30024A6421C
:1022780002D8F8BD0133F6E70F682846FFF7C6FD18
:1022880001343946F3E72DE9F843068ACD1C0746A1
:10229800FFF79CFD043E35440446B5FBF6F5F0B166
:1022A8004FF48073EDB28380C680013D076081469C
:1022B8004FF00008A84512D23846FFF787FD0646BA
:1022C80048B163790133637108F10108C9F8000066
:1022D80007608146EEE72046FFF7BFFF34462046F9
:1022E800BDE8F88301210430FFF73BBD10B501219B
:1022F80004460430FFF741FDC0B220B92046BDE8CE
:102308001040FFF7AABF10BD1FB50392002200922C
:1023180003AAFFF75DFF05B05DF804FB1FB5039244
:102328000122009203AAFFF753FF05B05DF804FBF2
:10233800836800225A60C3E904229A60DA601A604E
:10234800704770B5446806460D46206818B1B368F2
:102358002946984718B923682B60256070BD246802
:10236800F3E74368186808B102681A607047436861
:10237800186870474368186800B97047884203D1E5
:1023880002681A600120704703460068F4E70000FD
:1023980038B5074C051E04F1080318BF1C4623680E
:1023A8002BB11A6822605B6828469847F7E738BD62
:1023B800AC66002020B9054B01225A70FFF7E8BF30
:1023C800012802D1014A9070F8E77047A4660020FE
:1023D80038B5094C23786BB908486360A36023615A
:1023E800E36000F09DF8054600F0A6F8012323708D
:1023F800284638BD8525FBE7A4660020BD230000DC
:1024080038B5134CA378054603F0FF0073B115B136
:102418006B68012098470020FFF7E4F9E36801336F
:10242800E3600020BDE83840FFF7DEB9FFF7DAF9CE
:1024380025B1226913463BB92A602561E368002B60
:10244800ECD100F08BF8E9E79D42F7D01B68F2E782
:10245800A466002038B5084C0020FFF7C3F9E368EC
:10246800013BE360E56815B900F089F8A570BDE89F
:1024780038400020FFF7B8B9A46600204FF0804329
:10248800D3F81804C0F300407047000038B5134C67
:102498006378054603F0FF0073B115B16B6800203F
:1024A80098470020FFF79EF96368013363600020B6
:1024B800BDE83840FFF798B9FFF794F925B1A2684D
:1024C80013463BB92A60A5606368002BECD100F085
:1024D8005FF8E9E79D42F7D01B68F2E7A4660020A1
:1024E80038B5084C0020FFF77DF96368013B63604D
:1024F800656815B900F05CF86570BDE838400020E3
:10250800FFF772B9A46600204FF08043D3F80C049B
:1025180000F00110A0F10113584258417047000023
:10252800044A137923B901211060117118467047C4
:1025380085207047B8660020074B1A68D2075FBF2E
:10254800C02283F8002301221A604FF08043012241
:10255800C3F81825704700BF00E100E04FF0804342
:102568000022C3F8042182B0D3F804210192019A11
:102578000222C3F8042301229A6002B070474FF088
:1025880080430122DA60D3F81824D203FBD47047C1
:102598004FF080430022C3F8002182B0D3F8002115
:1025A8000192019A0122C3F804231A6002B070470D
:1025B8004FF0804201235360D2F80C3403F001132A
:1025C800B3F1011FF8D070474FF0804307B5D3F837
:1025D800002162B10020C3F80001D3F80021009265
:1025E800009A0122C3F808230D4B1B6898474FF047
:1025F8008043D3F8042182B10022C3F80421D3F820
:1026080004210192019A0222C3F80823044B1B6893
:10261800012003B05DF804EB184703B05DF804FB34
:10262800B866002000F1804000F5C040002382B069
:10263800036003680193019B02B0704703681F2B76
:1026480083BF03F01F03036001484FF0A0407047A9
:102658000003005007B5019001A8FFF7EFFF019BA9
:1026680000EB8300D0F8003723F44033C0F800377C
:10267800D0F8003743EA0141C0F8001703B05DF80D
:1026880004FBC208012300F0070003FA00F08B5C8A
:102698001843885470470000054B4FF0FF32072855
:1026A80043F8202084BFC01880F85220704700BF2C
:1026B800C066002038B5154D95F8644024BB2A2221
:1026C800FF2105F130003CF0C2FBE0B20134FFF716
:1026D800E3FF0C2CF9D10E4B0022C5F85E209A803E
:1026E8000C4BC02183F80613402119604FF4BE70CB
:1026F800FFF798FF084B4FF00041C3F8041301237C
:1027080085F86430104638BD0820FCE7C066002014
:102718001E67002000E100E000600040034B93F8D2
:102728006400003818BF0120704700BFC066002051
:102738002DE9F341DFF8F48008EB0003054693F92F
:102748003030002B0F466CDA8B78C3F34003002B34
:102758000BBF082400240C2108218C4203D104203B
:1027680002B0BDE8F08158F82400013041D108EBEF
:10277800050166B248F8242081F830601BB908EBDF
:10278800040383F85250BB785A0712D4D90732D5BC
:1027980001A80195FFF752FF019B00EB8300D0F8D9
:1027A800003723F00203C0F800371F492846FFF717
:1027B80068FFBB783A7813F0020328D0A40004F12C
:1027C800804404F5C0442D02D4F8103523F44F3367
:1027D80023F44073C4F810351204D4F8103505F406
:1027E8007C5502F4403215431D43C4F810550020AF
:1027F800B6E70134B1E701A87A780195FFF71EFF23
:10280800019B03F5E073920040F82320CDE7083ED2
:1028180048FA86F898F85A5045EA821288F85A20F9
:10282800E5E708209CE700BF1E670020C06600207F
:1028380073B5244D2E18044696F93020072A1DDD5D
:10284800083A45FA82F595F85A309B09032B10D1BE
:10285800019001A8FFF7F2FE019BD0F81015D940AE
:1028680001F001010231204602B0BDE87040FFF7D7
:10287800F1BE012B0CBF02210321F4E7D3B2072BD1
:102888001DD8930003F1804303F5C043D3F8100526
:1028980040F00100C3F8100502F1400040B280008A
:1028A80080B2FFF7BFFE51B196F9303055F82330AA
:1028B8002BB1012303FA02F2034BC3F8042302B03D
:1028C80070BD00BFC06600200060004007B50190E1
:1028D80001A8FFF7B3FE019BD0F81005D84000F01F
:1028E800010003B05DF804FB2DE9F04F00248BB024
:1028F800CDE90444654D4FF48072012102F1804313
:1029080003F5C04390B21B68012B06D1D5F80433F8
:102918000B4202D0FFF786FE0C430432B2F5907FDB
:102928004FEA4101EAD1594BD3F87C31012B0ED142
:102938004FF4BE70FFF776FE4FF0A04344F000441A
:10294800D3F810350493524BD3F810350593E3B2FE
:10295800D3B1504F00250126344210D0AB0003F10B
:10296800804303F5C043D3F81005D3F8101557F882
:10297800253023B1C1F30141C0F305209847013543
:10298800082D4FEA4606E7D1002C7BDA0023CDE973
:1029980006334FF0FF33CDE90833DFF8F8A03E4B9C
:1029A800019300263546019B13F9014B0193631CE3
:1029B8004FD0C4F3C2070122E3B204F03F0B04F086
:1029C800070402FA04F407F128020DEB020717F8CE
:1029D800081C21423DD00AEB0B014FEA931991F9EB
:1029E80030105AF82180B8F1000F07D1B9F1030F60
:1029F8002FD106A95846FFF744FE02E0B9F1030FAC
:102A0800F7D003A8CDF80CB0FFF718FE039901F52D
:102A1800E07150F8211017F8180C2042C1F3014159
:102A280006D0022915D1B9F1030F0CD1494605E0AA
:102A380003290ED1B9F1030F05D102215846FFF73A
:102A480009FE0135EDB2B8F1000F02D049465846EB
:102A5800C0470136042EA6D1A5B14FF0A043049972
:102A6800D3F8102503F540739142D3F8103502D1FD
:102A78000599994206D004920593069A079B0892F5
:102A880009938CE70BB0BDE8F08F00BF00600040F1
:102A980000030050C06600201A67002007B54FF0F9
:102AA800FF33019300F0030001AB18443CF0A6F992
:102AB800019803B05DF804FB044AD2F80034DB0740
:102AC800FBD50160BFF35F8F704700BF00E0014096
:102AD8004FF0805302461869B2FBF0F300FB132055
:102AE80068B9084B0221C3F80415C3F80825D3F8C0
:102AF8000024D207FBD50022C3F804257047102014
:102B0800704700BF00E001402DE9F8431E4B154611
:102B18000122C3F8042510F0030304460E4610D022
:102B2800C3F10407AF4228BF2F463A46A0EB03087B
:102B3800FFF7B4FF01464046FFF7BEFFED1B3C44DC
:102B48003E4425F00308B0443746A4EB0609B845CF
:102B580013D115F003020AD025F003052C4471198E
:102B68002046FFF79BFF01462046FFF7A5FF064BCF
:102B78000022C3F80425BDE8F88309EB070057F8DD
:102B8800041BFFF799FFE2E700E001400220FEF78F
:102B9800F9B800002DE9F04780460D46FEF70CF91C
:102BA8000328044610D8012D10D0022D30D05DB96D
:102BB8001A48FEF730FD1A4B04EB440213449D7883
:102BC800184B1B5DAB4219D0BDE8F087144E00EBE3
:102BD8004003F218F55C5378470053B1DFF84C9086
:102BE8000E484A464FF48041FEF7FDFC08B989F8C3
:102BF800008027443E440B4BB2781A55002DE3D091
:102C0800094B1B68002BDFD02846BDE8F047184762
:102C180000EB4004024804446578EFE75067002061
:102C280090670020A9670020A4670020286700207B
:102C380000780221FFF7AEBF08B5094B1B7853B1E6
:102C48000020FEF76DF80120FEF76AF8BDE808409D
:102C58000320FEF765B8BDE80840FEF775B800BF69
:102C680029670020F8B57A4C237805461BB1002364
:102C78002370FFF7E1FF172D00F28780DFE805F0EA
:102C88000C1717425364757F878C878C9499999990
:102C98009999C3C8D0D8E3E3FFF7CEFF6D48FEF794
:102CA800BAFC6D4B002204461A702046F8BD00207D
:102CB800FEF70EF8F0B10020FEF732F8022D0CBF37
:102CC8004FF4E1644FF47A64634B1D7000254FF4B0
:102CD80000464FF47A7029464FF4FA620023E4FB69
:102CE80006013BF0BDFC2A460146BDE8F8405948BC
:102CF800FEF779BCFEF700F8022D0CBFC8244FF48C
:102D0800C874E1E70020FDF7E3FF40B10020FEF7BB
:102D180007F84FF44874504B03221A70D6E7FDF7B2
:102D2800EBFFC824F7E70020FDF7D2FF38B10020F9
:102D3800FDF7F6FF4FF47A64474B0422EDE7FDF701
:102D4800DBFF4FF4C874F7E70020FDF7C1FF48B177
:102D58000020FDF7E5FF404B05221A7040F6CD41F3
:102D68000022C2E7FDF7C8FFF5E70020FEF70AF8E2
:102D7800394B06221A70002240F26661B5E700203E
:102D8800FDF7BAFF344B07221A7000248DE70120A3
:102D98002070FDF7F7FFEEE701202070FDF7F2FF46
:102DA80000224FF40051A0E7FDF7DDFF2A4B0C226B
:102DB800EAE72A482A4EFEF72EFCD5F1110504460B
:102DC8001CD0D8B9012D13D0C820454321464FF453
:102DD80000474FF47A704FF4FA620023C5FB0701ED
:102DE8003BF03EFC224601461C48FEF7FCFB04462D
:102DF8000220FDF781FF0123337056E70220FDF71B
:102E08008FFF0023F8E7FFF717FF134B1222BBE7EA
:102E1800FFF712FF0020FDF76FFF0F4B1322B3E7F8
:102E2800FFF70AFF0120FDF767FF0B4B1422ABE702
:102E3800FFF702FF0020FDF75FFF0120FDF75CFFB1
:102E4800054B1522A0E7FDF78EFF034B1D709CE78D
:102E5800A067002070670020A86700203067002066
:102E680029670020044B1B68DB0703D5034B187840
:102E7800FFF7F8BE704700BF9C670020A8670020D6
:102E8800044B1B6813F0010301D0FFF7EBBE184693
:102E9800704700BF9C67002038B51C4B18601C4B5E
:102EA80010F00204054619601AD01A4B1A480E226F
:102EB8001A700F22DA7010229A7111225A720421A4
:102EC80040F23332FEF76AF9044648B9FEF7BEF914
:102ED800044628B90146114A1148FEF779FB044611
:102EE800EB0711D50120FDF779FF6CB921460D4A92
:102EF8000D48FEF76DFB044630B9BDE838400B4A73
:102F08000B480121FEF764BB204638BD9C670020B2
:102F1800A46700209067002058FE0300392C0000A9
:102F28007CFE03006D2E000080FE0300952B000040
:102F380078FE03001D4B70B51870032806D8DFE82B
:102F480000F0020729300120FDF7EAFE002070BDDD
:102F58000120FDF7BDFEC0B10120FDF7E1FE4FF4F1
:102F6800487400254FF400464FF47A7029464FF410
:102F7800FA620023E4FB06013BF072FB2A46014695
:102F8800BDE870400A48FEF72EBB0120FDF7B4FEED
:102F9800C824E6E70120FDF7F5FE002240F266614D
:102FA800EEE70120FDF7A8FED0E700BFD0670020BC
:102FB800B0670020014B1878FFF7BCBFD06700202E
:102FC80008B5154A1378013BDBB21370BBB1012079
:102FD800FDF77EFE68B10020FDF7A2FE0120FDF797
:102FE8009FFEBDE808400D48002240F6CD41FEF79F
:102FF800FABAFDF781FE0120FDF77EFEF1E7084BE6
:103008001878FFF797FF28B9064B1878BDE80840ED
:10301800FFF736BF08BD00BFE0670020E867002063
:10302800D0670020D1670020FFF7CABF38B5114B21
:10303800114A00211970114B1970114B05461A607D
:10304800C3E901110F4A1048FEF7C2FA044628B92D
:1030580001460E4A0E48FEF7BBFA04462A460D49B9
:10306800284609F029FF0649284609F09BFE204614
:1030780038BD00BFD1670020E1300000D0670020D4
:10308800D4670020BD2F000084FE0300313000000B
:1030980088FE0300AD300000014B1870FFF7F0BE4A
:1030A800D167002008B543070DD508461EF08EFAF3
:1030B80028B1831EDBB2022B94BF07200620BDE88F
:1030C8000840FFF7E9BF08BD024B08221A70FFF756
:1030D80077BF00BFE06700201B78802B01D1FFF786
:1030E800F3BF704713B5019008461EF06FFA074CFE
:1030F800019A074903460748241AE408240444F0BF
:10310800030002B0BDE81040FDF77DBCBCFB030026
:103118008CFE0300ACFB030007B50DF1060101A806
:1031280000F027F920B10DF1060101A800F021F9FE
:10313800034BBDF804201A8003B05DF804FB00BF00
:10314800386A002070B5154A88B05168106812892D
:103158006B4603C368461A803BF0F5FE81B26846A9
:1031680005F05CF90E4B03AA03F110061546186822
:103178005968144603C40833B3422246F7D11B8862
:10318800238028463BF0DFFE81B2284605F046F949
:10319800044B00221A7008B070BD00BFBCFE0300CB
:1031A800C6FE03001400002070B5134B8EB001AAB0
:1031B80003F13006144618685968154603C50833E4
:1031C800B3422A46F7D11B882B800C4B0C491B882D
:1031D800224620463BF0C4FC20463BF0B4FE81B2B8
:1031E800204603F023FF20463BF0ADFE81B2204687
:1031F80005F014F90EB070BDDEFE0300386A002039
:10320800D8FE030008B5FDF793FA0028FBD1074B59
:103218001B780BB1FFF796FFFFF7C6FFFFF77CFFA0
:10322800FDF786FA0028FBD108BD00BF1400002076
:1032380008B5064800224FF44041FEF7D4F918B10A
:10324800BDE80840FEF718B808BD00BF186A00209E
:1032580008B50248FEF7DFF908BD00BF186A00206C
:103268000F2801D0FFF7E4BFFFF7F2BF1FB54FF4F7
:1032780080410020FDF702FA08B1FDF7FDFFFDF7D8
:1032880037F92C4A20210820FEF73AF808B1FDF753
:10329800F3FFFEF76BF908B1FDF7EEFF00230122FB
:1032A8004FF0A04103200133202B38D14FF0A04329
:1032B8004FF4F0320024C3F808251F49C3F80C4521
:1032C8000220FFF7E9FD08B1FDF7D6FF012301A8A9
:1032D800CDE9014403948DF806303BF0E1F83BF06A
:1032E80081F916483BF0B4F93BF0ACF9FFF79EFEC4
:1032F80008B1FDF7C1FF124A12480121FEF768F92B
:10330800FFF796FFFFF7A4FF3BF072F9FEF778F896
:10331800FDF70EFA0028F7D13BF076F9F4E702FA48
:1033280003F414F4F03F1CBF03F5E07441F82400E3
:10333800B9E700BF0868002069320000ED300000DE
:103348000D32000010FF0300024B800143F001031F
:10335800184700BF20FF03004FF0A043D3F8100523
:10336800C0F3C02070474FF0A0430C22C3F82C27AD
:1033780070472DE9F7430023064632208DF80030C8
:103388008DF801308DF802308DF803308DF8043057
:103398000F46FFF7E8FFFFF7D7FFFFF7DDFF00282D
:1033A80000F089804FF0A0430322C3F82C274FF484
:1033B8000062C3F808251424C3F80C254FF47A706A
:1033C800FFF7C2FF013CF9D13220FFF7CCFFFFF72E
:1033D800BBFFFFF7C1FF50B1022003B0BDE8F08387
:1033E8000520FFF7B1FF013C02D10320F5E71224C5
:1033F800FFF7B2FF0028F3D01224FFF7ADFF054610
:10340800002842D1282481464FF00B08FFF7A4FF7B
:10341800002840D04FF00F08FFF79EFF002842D148
:10342800B8F1090F4FEA450504F00703D8BF45F086
:103438000105012B07D109F108036B4409F10109C2
:1034480003F8085C0025013CDED19DF800209DF8BA
:1034580001509DF802309DF803009DF804C05119F1
:1034680019440144C9B28C4527D102EB820203EB0F
:10347800830302EB820203EB830300EB830305EB78
:1034880082023A8020463380A7E70520FFF75CFFD9
:10349800013CB2D1A0E70520FFF756FFB8F10108BB
:1034A800B4D1042099E70520FFF74EFFB8F10108D1
:1034B800B2D1052091E701208FE706208DE7036947
:1034C800C26893429CBF80681B18013B981A7047DA
:1034D8002DE9F843D0E902940546A9EB04084068B1
:1034E800904520440F46144404D93BF087FCEC6017
:1034F800BDE8F8834246A4EB09043BF07FFC68680A
:10350800224607EB0801F0E72DE9F843C5680646AF
:10351800894617464FF000083469B3687068A542B9
:1035280028BFE418013C621B5C1BBC4228BF3C4618
:10353800944228BF14464946284422463BF05EFC84
:10354800B3682544AB4208BF00253F1BA044A144F3
:10355800F560E1D14046BDE8F883000010B5114C94
:10356800114AA2610223C4E90433104BE361A26447
:103578004FF400730E4A0F492362E26400231022BD
:10358800E01DA3626362E362A3656365E365226588
:103598003BF090FC084920463BF08CFC2023A371AB
:1035A80010BD00BF3C6A002026FF0300C46A00204B
:1035B800B46A00202FFF030033FF030070B5164BD9
:1035C800182400FB04451D4404FB00331646DC6A3E
:1035D800012C0ED0022C18D0E4B92846FFF76FFF53
:1035E800864204D832462846FFF772FF3446204602
:1035F80070BD2846FFF763FF8642344628BF04465D
:1036080022462846FFF764FFF1E72846BDE87040E8
:10361800FFF77ABF0024EAE73C6A002070B50C4C3B
:10362800237805460E460BB9FFF798FF2369AB428E
:103638000BD90020FEF7D6F8182000FB054400201F
:10364800E662FEF7D1F8002070BD4FF0FF30FBE7CF
:103658003C6A0020FFF782BFD0F8980109F02FBC20
:10366800D0F8980109F026BC0149806805F0C5BD6D
:103678000C1204002DE9F041124F134E04460025A8
:103688004FF00C0808FB05F33146DA59A0680135FC
:1036980005F0B3FD442DF5D10B4E002322795D1CB6
:1036A800DBB29A4208D92268A06852F83320314622
:1036B80005F0A3FD2B46F1E72046BDE8F041FFF7F2
:1036C800D3BF00BFDC0E0400810B040010B5044614
:1036D8008AB06946D0F8980110F08EFBBDF800203A
:1036E8002B49A06805F089FDBDF802202949A0688A
:1036F80005F083FDBDF80630BDF804202649A06812
:1037080005F07BFDBDF80A30BDF808202349A06804
:1037180005F073FDBDF80E30BDF80C202049A068F7
:1037280005F06BFDBDF81230BDF810201D49A068EA
:1037380005F063FDBDF81630BDF814201A49A068DD
:1037480005F05BFDBDF81A30BDF818201749A068D0
:1037580005F053FDBDF81E30BDF81C201449A068C3
:1037680005F04BFDBDF82230BDF820201149A068B6
:1037780005F043FDBDF82630BDF824200E49A068A9
:1037880005F03BFD2046FFF76FFF0AB010BD00BFF4
:10379800270A0400330A04003E0A0400500A040001
:1037A800620A04006F0A04007C0A0400890A040003
:1037B800B70A0400960A0400AB0A040038B50446A8
:1037C8008568D0F898011DF01AFF05490246284679
:1037D80005F013FD2046BDE83840FFF745BF00BFA0
:1037E800BA00040010B5044609F06CFB044902460F
:1037F800A06805F002FD2046BDE81040FFF734BF81
:10380800810B040010B50446D0F898011DF054FF50
:1038180040B10549A06805F0F0FC2046BDE810401D
:10382800FFF722BF0149F5E7C6090400CD090400E6
:1038380000BA7047214A4FF47A7370B5C0E9032380
:10384800034600251E4A05600571856005754575A6
:10385800C58243F8282F044603630E4680F840507B
:1038680080F87F500146803005F03CFD2146C4F8C1
:10387800BC4004F1C00003F0BBFD214604F58C7088
:1038880004F0DCF822463046C4F89041C4F894416C
:10389800C4F898610B4918F099F80B4BD4F89801C3
:1038A800C4E90D3404F1340109F07CFA3E222946BA
:1038B80004F141003BF0CBFA204670BD080001003E
:1038C800915B000029700000095A00002DE9F041C1
:1038D80007460C46154698463BF035FB391800F06C
:1038E8000106B8F1000F19D000203A460746914268
:1038F8001AD912F8013BA3F1410CBCF1050F15D8F8
:10390800373B3B43DBB2F6B10130854204F1010C91
:10391800237009D0002637466446E8E70130B5EB46
:10392800500FE1D24FF0FF30BDE8F081A3F1610CF8
:10393800BCF1050F01D8573BE3E7303BDBB2092B5D
:10394800F0D83B43DFE71B01DFB2A4460126E3E7DB
:1039580070B50C4619B9BDE87040FFF785BE85689B
:1039680008460BF075FC2246034603492846BDE885
:10397800704005F042BC00BF1312040010B50446A5
:10398800C03003F08DFD01462046BDE81040FFF72A
:10399800DFBF10B5044600F58C7004F0ABF80146A3
:1039A8002046BDE81040FFF7D3BF00002DE9F041E5
:1039B800044690460F4671B98D49806805F01DFC94
:1039C8008C49A06805F019FC3D4629462046BDE80B
:1039D800F041FFF7BDBF884910683BF08DFA0646F5
:1039E800002840F0B880012F40F0A480D4F8980156
:1039F8000BF012FB054602688049A06805F0FDFB44
:103A08006A687F49A06805F0F8FBAA687D49A06844
:103A180005F0F3FBEA687C49A06805F0EEFB2A692B
:103A28007A49A06805F0E9FB6A697949A06805F058
:103A3800E4FBAA697749A06805F0DFFBEA697649E3
:103A4800A06805F0DAFB2A6A7449A06805F0D5FB7E
:103A58006A6A7349A06805F0D0FBAA6A7149A06830
:103A680005F0CBFBEA6A7049A06805F0C6FBAA6BB3
:103A78006E49A06805F0C1FB2A6C6D49A06805F085
:103A8800BCFB6A6C6B49A06805F0B7FBAA6C6A4975
:103A9800A06805F0B2FBEA6C6849A06805F0ADFBC8
:103AA8002A6D6749A06805F0A8FB6A6D6549A0689A
:103AB80005F0A3FBAA6D6449A06805F09EFBEA6DBA
:103AC8006249A06805F099FB2A6E6149A06805F073
:103AD80094FB6A6E5F49A06805F08FFBAA6E5E4989
:103AE800A06805F08AFBEA6E5C49A06805F085FBD2
:103AF8002A6F5B49A06805F080FB6A6F5949A06886
:103B080005F07BFBAA6F5849A06805F076FBEA6FC1
:103B18005649A06805F071FBD5F880205449A06883
:103B280005F06BFBD5F884205249A06805F065FBC9
:103B380035464AE7022F01D0072546E74E49D8F80F
:103B480000003BF0D9F905460028F5D1D4F89801D2
:103B58000BF066FA39E74949D8F800003BF0CCF990
:103B680005460028E8D1012F32D1D4F898011DF07C
:103B7800BCFD064602884249A06805F03EFB7288F3
:103B88004049A06805F039FBB2883F49A06805F0B4
:103B980034FBF2883D49A06805F02FFB32893C4987
:103BA800A06805F02AFB72893A49A06805F025FB50
:103BB800B2893949A06805F020FBF2893749A06825
:103BC80005F01BFB328A3649A06805F016FBFCE6B7
:103BD800022FB1D12849D8F800003BF08DF90546ED
:103BE8000028A9D1D4F898011DF083FDEDE600BFA7
:103BF800650404006B0404007104040075040400E7
:103C08008304040097040400AD040400C6040400FF
:103C1800D8040400F3040400040504001905040092
:103C28002C05040046050400580504006A05040034
:103C38007D05040098050400A6050400BA050400E3
:103C4800D0050400E1050400F60504000906040097
:103C58002306040035060400510604006E0604001D
:103C6800850604009C060400BD060400DB0604006B
:103C7800EE060400010704004BFD030016070400CC
:103C88001A0704002E070400420704005307040023
:103C980065070400A30704007707040092070400DF
:103CA800B907040070B5054614460E46B1B9D0F8F8
:103CB80098010AF03FF8044650B11249A86805F087
:103CC8009CFA304601462846BDE87040FFF740BEE2
:103CD8000D49A86805F091FA2046F3E70B491068EA
:103CE8003BF00AF928B90121D5F898010AF00EF835
:103CF800E8E7074920683BF0FFF801460028F3D0C1
:103D08000720DFE780080400850804008C08040009
:103D18008F08040037B504466946D0F898011DF0AD
:103D280059FC0546E0B9009A1049A06805F065FA03
:103D38009DF804200E49A06805F05FFA9DF805205B
:103D48000C49A06805F059FA9DF806200A49A068B0
:103D580005F053FA9DF807200849A06805F04DFAC8
:103D680029462046FFF7F4FD03B030BDC50A04001C
:103D7800D80A0400EF0A0400E80A0400020B040051
:103D8800F0B5044685B01546D1B9D0F89801214F51
:103D98001DF06CFD461E00F10F0516F8012FA068F6
:103DA800394605F02AFAAE42F7D11B49A06805F05A
:103DB80024FA002001462046FFF7CAFD05B0F0BDF1
:103DC800012910680CD1002310226946FFF77EFDF7
:103DD80010281CD16946D4F898011DF04BFDE9E77D
:103DE8000E493BF089F890B9D4F898016D681DF038
:103DF800ABFB0646D4F898011DF030FB6B46024633
:103E08003146284606F017F80028D3D1E2E7072004
:103E1800D0E700BF98FC0300CD0D04004C0004005F
:103E2800F0B5044685B01046C9B9D4F89801144FC6
:103E38001DF05EFB461E00F10F0516F8012FA06865
:103E4800394605F0DAF9AE42F7D10E49A06805F017
:103E5800D4F900212046FFF77BFD05B0F0BD002313
:103E6800102269460068FFF731FD102806D169461F
:103E7800D4F898011DF040FB0146EBE70721E9E77C
:103E880098FC0300CD0D040073B50E460446154694
:103E98000021012201A83AF0DAFF6EBBD4F898019C
:103EA8001DF005FB8DF80400C00703D52949A0685B
:103EB80005F0A3F99DF80430990703D52649A068B1
:103EC80005F09BF99DF804305A0703D52349A068EB
:103ED80005F093F99DF804301B0703D52049A06825
:103EE80005F08BF91F49A06805F087F900212046E5
:103EF800FFF72EFD02B070BD2A68013A12F8013FA3
:103F080003B36E2B19D003D8642B11D00721EEE729
:103F1800722B06D0732BF9D19DF8043043F00203BD
:103F280003E09DF8043043F001038DF80430E5E721
:103F38009DF8043043F00403F7E79DF8043043F09C
:103F48000803F2E79DF80410D4F898011DF0BEFAB2
:103F58000146CCE7E02D0400B67904006579040039
:103F6800AD2E0400CD0D04002DE9F04F8BB00023D9
:103F780004461546ADF8023031B907212046FFF74F
:103F8800E7FC0BB0BDE8F08F444910683AF0B4FF85
:103F98000646002879D0424928683AF0ADFF002843
:103FA800EBD1DFF824A1DFF82491DFF8248104E0C5
:103FB800BDF81020514605F020F901AF3A460DF141
:103FC8000201D4F898011DF0F9FA002857D1A06829
:103FD800002EEDD19DF82430DFF8F8B013F0100F63
:103FE8000CBF52224322494605F007F9BDF81020BC
:103FF800A068414605F001F9039A2A49A06805F02E
:10400800FCF89DF91D202849A06805F0F6F89DF9EF
:104018001E202649A06805F0F0F89DF824202449C0
:10402800A06802F0010205F0E8F89DF82420204974
:10403800A068C2F3400205F0E0F89DF824201C496E
:10404800A068C2F3800205F0D8F89DF8242018492A
:10405800A068C2F3C00205F0D0F81649A06805F0C0
:10406800CCF835467A5DA0685946013505F0C5F8A3
:10407800082DF7D11049A06805F0BFF89DE70F4952
:10408800A06805F0BAF8002178E70D49A06805F0A6
:10409800B4F80C49A06805F0B0F882E79408040069
:1040A800120D0400AC080400B3080400BA080400A8
:1040B800C1080400DC0C0400E3020400CD0D040078
:1040C800C608040012090400A40804009A080400A1
:1040D800A208040098FC030010B50446D0F8980123
:1040E80005F0BBFA01462046BDE81040FFF730BC9A
:1040F80038B505460C46D0F8980169B91DF024FA80
:10410800084903461022A86805F077F82146284692
:10411800BDE83840FFF71CBC11681DF019FA0146CC
:10412800F5E700BF470C04002DE9F04186B001AF68
:1041380004463946D0F898011DF066FA064650BB89
:104148001849A068DFF8748005F057F835467A5D9D
:10415800A0684146013505F050F8082DF7D11249FD
:10416800A06805F04AF8BDF80C201049A06805F0D1
:1041780044F89DF811200E49A06805F03EF89DF816
:1041880012200C49A06805F038F89DF813200A4958
:10419800A06805F032F831462046FFF7D9FB06B093
:1041A800BDE8F0810E020400CD0D040019020400E0
:1041B800240204003A0204005102040098FC03009F
:1041C80070B504461646B1B9D0F898010AF00FFF49
:1041D80078B1D4F8980135F047FD50B11649A06878
:1041E80005F00BF8002001462046BDE87040FFF7B7
:1041F800AFBB1249F3E7124910683AF07DFE58B98F
:104208001049D4F8980122460AF0ECFE0121D4F8AE
:1042180098010AF0F3FEE6E70B4930683AF06CFEC5
:10422800054638B901460246D4F898010AF0DAFE84
:104238002946ECE70720D6E74E0C04005C0304008F
:10424800580C0400B15C00005F0C040070B5054612
:1042580014460E46B1B9D0F898011DF05FFA04462D
:1042680050B11249A86804F0C8FF304601462846F4
:10427800BDE87040FFF76CBB0D49A86804F0BDFFAE
:104288002046F3E70B4910683AF036FE28B90121B9
:10429800D5F898011DF047FAE8E7074920683AF091
:1042A8002BFE01460028F3D00720DFE74E0C040060
:1042B8005C030400580C04005F0C040038B5044685
:1042C8001546F9B9D0F898011DF080F9042817D8D7
:1042D800DFE800F0030E101214001F49A06804F074
:1042E8008CFF002001462046BDE83840FFF730BB70
:1042F8001A49F3E71A49F1E71A49EFE71A49EDE7CE
:104308001A49EBE71A4910683AF0F6FD20B9D4F8D3
:1043180098011DF048F9E5E7164928683AF0ECFDE0
:1043280020B9D4F898011DF043F9DBE71249286851
:104338003AF0E2FD20B9D4F898011DF03CFAD1E733
:104348000E4928683AF0D8FD20B9D4F898011DF034
:1043580044FAC7E70720C5E79E010400A901040045
:10436800B4010400BC010400C5010400CE0104002E
:10437800DE010400A92D0400E7010400EE01040099
:1043880070B50546144631B3154910683AF0B4FDC6
:1043980050B90121D5F898011DF07CF9014628464D
:1043A800BDE87040FFF7D4BA0E4920683AF0A4FD82
:1043B80001460028EED020680B493AF09DFD0446DE
:1043C80058B9AE681DF076F908490246304604F03F
:1043D80014FF2046E2E70720E0E72320DEE700BFDE
:1043E8003B0304004103040046030400CF0B040010
:1043F80010B50446BC3004F007FE01462046BDE86F
:104408001040FFF7A5BA10B50446803005F052F801
:1044180001462046BDE81040FFF79ABA10B5044699
:1044280000F5C87003F086FF01462046BDE810403D
:10443800FFF78EBA10B5044600F5CA7004F07CFE8A
:1044480001462046BDE81040FFF782BAF0B5C3B078
:1044580000238DF808308DF80731FF2304460093B8
:10446800D0F8980102AB07F041F8A5682B6806461A
:1044780002A81F683AF067FD02A982B22846B84729
:1044880031462046FFF764FA43B0F0BD2DE9F0410C
:10449800084F06460D4690460C46631B984506DDB8
:1044A80014F8012BB068394604F0A7FEF5E7BDE81B
:1044B800F08100BF98FC030037B505460C4699B952
:1044C8006946D0F898010AF0FDFC0822694628469A
:1044D800FFF7DCFF0549A86804F08FFE214628464F
:1044E800FFF736FA03B030BD0721F8E7CD0D040019
:1044F80037B505460C46104691B9D5F898010AF02B
:10450800C6FC082201462846FFF7C0FF0D49A868E7
:1045180004F073FE21462846FFF71AFA03B030BDAF
:104528000023082269460068FFF7D0F9002801DA5D
:104538000721F0E76946D5F898010AF0ACFC014676
:10454800E9E700BFCD0D040037B505460C46104617
:1045580091B9D5F898011CF081FF08220146284638
:10456800FFF794FF0D49A86804F047FE2146284646
:10457800FFF7EEF903B030BD002308226946006852
:10458800FFF7A4F9002801DA0721F0E76946D5F812
:1045980098011CF067FF0146E9E700BFCD0D040054
:1045A80030B5C3B0FF238DF8073004460DF107037B
:1045B80002AA0021D0F8980117F0FBF9054648B97E
:1045C80002A920469DF80720FFF760FF0449A0686C
:1045D80004F013FE29462046FFF7BAF943B030BD70
:1045E800CD0D040010B5CC894B880A8886B064BA12
:1045F800A4B205948C8964BAA4B204944C8964BAB0
:10460800A4B203940C8964BAA4B20294CC8864BAA4
:10461800A4B20194898849BA89B200915BBA52BAA6
:104628009BB292B20249806804F0E7FD06B010BD63
:10463800221204002DE9F04704468EB00D46A9BBAE
:10464800D0F89801DFF8A880264F1DF059F8AA463F
:104658008146AEB24E453AD206AA3146D4F8980100
:10466800ADF806A01DF0D6F8F0B99DF83430C3F3C4
:104678000013CBB9ADF8063002AB0DF10602314696
:10468800D4F898011DF0CDF870B9BDF82820A068BD
:10469800414604F0B2FD02A92046FFF7A3FF3946C0
:1046A800A06804F0AAFDE7E70135D2E70E491068D3
:1046B8003AF022FC90B9012D12D1D4F89801A568DE
:1046C8001DF027F809490246284604F096FD002106
:1046D8002046FFF73DF90EB0BDE8F0872321F7E744
:1046E8000721F5E7CD0D04005A120400AF000400BD
:1046F8000804040030B58FB004460822002101A840
:104708003AF0A5FB0B4DD4F8980101AA03A91DF0B6
:10471800A5F850B903A92046FFF764FFBDF81C208F
:10472800A068294604F069FDEDE72046FEF79CFFE6
:104738000FB030BDB900040013B500220C4601A922
:104748003AF0A8FA019B20601B78002B14BF0720C1
:10475800002002B010BD000073B5054616460C4691
:1047680081B98668D0F898010AF062FB19490246B7
:10477800304604F042FD204601462846FFF7E8F897
:1047880002B070BD144910683AF0B6FB044638B957
:10479800D5F89801AE681BF097F902460F49E7E78C
:1047A8000F4930683AF0A8FB044628B9D5F89801B3
:1047B800AE681BF08DF9F0E701A93068FFF7BCFF80
:1047C8000028D9D19DF80410D5F898010AF03BFBD0
:1047D800D2E700BFAF000400ED030400F7030400B4
:1047E800FE0304002DE9F04F04468DB0154600295C
:1047F80000F09580894910683AF07EFB064600284B
:1048080000F08F80864928683AF076FB002800F08F
:104818009080286803A9FFF78FFF0546002877D105
:1048280004AF3A46BDF80C10D4F898011CF0EBFF21
:10483800054600286CD1BDF822207A49A068DFF827
:104848003C8204F0DAFCBDF820207749A06804F027
:10485800D4FC7649A06804F0D0FC2E46BA5DA06866
:104868004146013604F0C9FC082EF7D17049A0680A
:1048780004F0C3FC6F49A06804F0BFFC9DF82C301D
:10488800D80703D56C49A06804F0B7FC9DF82C3014
:10489800990703D56949A06804F0AFFC9DF82C304E
:1048A8005A0703D56649A06804F0A7FC9DF82C3088
:1048B8001B0703D56349A06804F09FFC5C49A06806
:1048C80004F09BFC9DF824205F49A06804F095FC47
:1048D800069A5E49A06804F090FC079A5C49A068B3
:1048E80004F08BFC9DF825205A49A06804F085FC4B
:1048F8009DF926205849A06804F07FFC08E0574934
:1049080004F07BFC88E04A49A06804F076FC0025A6
:1049180029462046FFF71CF80DB0BDE8F08F0725A3
:10492800F6E74F49A06804F068FC4E49A06804F017
:1049380064FCD4F89801DFF84CA1DFF84CB11CF006
:10494800DFFE00278146B9B24945DCD20DF11008D7
:104958004246D4F898011CF05DFF00285CD19DF810
:104968002C30DD0658D4A068BDF82220002EC6D110
:10497800514604F042FCBDF82020A068594604F0D6
:104988003CFC069A3849A06804F037FC079A364977
:10499800A06804F032FC9DF825203449A06804F092
:1049A8002CFC9DF824203249A06804F026FC9DF8D0
:1049B8002C203049A06802F0010204F01EFC9DF88A
:1049C8002C202C49A068C2F3400204F016FC9DF884
:1049D8002C202849A068C2F3800204F00EFC9DF840
:1049E8002C202449A068C2F3C00204F006FC224926
:1049F800A06804F002FC214B354618F80520A06891
:104A080001931946013504F0F8FB082D019BF4D1F8
:104A18001B49A06804F0F1FB013794E794080400EF
:104A2800120D0400A5000400B40004000E020400E6
:104A3800CD0D0400C1000400E02D0400B679040087
:104A480065790400AD2E0400C8000400D7000400F6
:104A58005102040024020400E5000400C80C04000C
:104A6800F0000400470104008F00040097000400D0
:104A78009E000400C1080400DC0C040098FC03003C
:104A8800E3020400AC080400A208040073B505465C
:104A98000C4681B98668D0F898011CF031FE0C49A3
:104AA8000246304604F0A9FB204601462846FEF798
:104AB8004FFF02B070BD01A91068FFF73DFE002846
:104AC800F3D1BDF80410D5F898011CF01DFEECE7F1
:104AD800AF00040073B505460C4679B98668D0F86E
:104AE80098011CF0B2FC0C490246304604F085FBE4
:104AF80021462846FEF72CFF02B070BD01A91068B8
:104B0800FFF71AFE04460028F2D10199D5F898015A
:104B18001CF09FFCECE700BFAF00040037B504466B
:104B280071B98568D0F898011CF024FE0A4902463C
:104B3800284604F062FB2046FEF796FD03B030BD20
:104B480001A91068FFF7F8FD0028F4D10199D4F8FD
:104B580098011CF013FEEEE7AF00040010B5044600
:104B680086B049B105A91068FFF7E6FDD8B9059BDD
:104B78001F2B17D8012199400D4B01930023029454
:104B880000934FF6FF72D4F898011CF09AFD50B9C3
:104B98000849A06804F031FB0749A06804F02DFB20
:104BA80006B010BD072001462046FEF7D1FEF7E704
:104BB80095620000CE070400270804002DE9F041A3
:104BC80090B00DF114080E460446154635232C22E4
:104BD8000021404601933AF03AF9002E3FD025498A
:104BE80028683AF089F900283FD194F84030002B22
:104BF8003DD1012E33D968683AF0A5F93D282ED861
:104C080004F14107696838463AF054F9022E0BD08E
:104C1800A96809A808F0E8FF10BB032E09D001A96C
:104C2800E868FFF789FD03E0134909A808F0DCFFED
:104C3800B0B9019BADF8363000238DF810300F4A1B
:104C4800D4F89801234602A9CDE9027806F058FC69
:104C580030B9012384F8403010B0BDE8F081072056
:104C680001462046FEF774FEF6E72320F8E7052004
:104C7800F6E700BF89FF030091FF0300CD5600004F
:104C88004B1E012BF7B505460F46164606D90724D5
:104C980021462846FEF75CFE03B0F0BD1D491068AA
:104CA8003AF02AF90446C8B9012F0AD1D5F8980173
:104CB800AE681CF067FC02461749304604F09DFABE
:104CC800E6E701A97068FFF737FD04460028DFD141
:104CD8000199D5F898011CF059FCD9E70F493068BB
:104CE8003AF00AF904460028D1D1012F05D1D5F8A8
:104CF8009801AE681CF04FFCDDE701A97068FFF76A
:104D08001BFD04460028C3D10199D5F898011CF071
:104D180046FCBDE7350C0400AF0004003D0C040060
:104D280073B505460C4679B98668D0F898011CF029
:104D380004FD0C490246304604F05FFA2146284635
:104D4800FEF706FE02B070BD01A91068FFF7F4FC7B
:104D580004460028F2D19DF80410D5F898011CF0FB
:104D6800F0FCEBE7AF000400F0B50546ADF5037DB8
:104D780014460E46002956D02D4910683AF0BCF862
:104D8800A8BB032E4FD969466068FFF7D5FC40B928
:104D9800009BA06802933AF0D6F8FC28024607D98F
:104DA800032001462846FEF7D3FD0DF5037DF0BD2F
:104DB8008DF80C00A1680DF10D003AF01FF8E068BD
:104DC8003AF0C1F8F8280246EAD88DF80B01E168F4
:104DD80043A83AF013F89DF80A31D5F8980143F042
:104DE800010301A98DF80A311BF0DCFAD9E7114952
:104DF80020683AF081F8C0B9022E019013D901A9B0
:104E08006068FFF799FC0028CBD1A468D5F89861B1
:104E1800019F20463AF097F82246C3B239463046F9
:104E28001BF0D8FABDE70720BBE72320B9E700BF8E
:104E38000F0404001304040073B505460C4679B941
:104E48008668D0F898011CF09DFC0C490246304653
:104E580004F0D3F921462846FEF77AFD02B070BD6A
:104E680001A91068FFF768FC04460028F2D19DF8F4
:104E78000410D5F898011CF089FCEBE7AF0004009A
:104E880073B505460C4681B98668D0F898010AF0D2
:104E98001FF80C490246304604F0AFF92046014697
:104EA8002846FEF755FD02B070BD01A91068FFF74E
:104EB80043FC0028F3D1BDF80410D5F898010AF096
:104EC8000BF8ECE7550D040073B505460C4681B99F
:104ED8008668D0F898011CF0E6FC0C49024630467A
:104EE80004F08BF9204601462846FEF731FD02B052
:104EF80070BD01A91068FFF71FFC0028F3D19DF9C8
:104F08000410D5F898011CF0D2FCECE7AF000400BF
:104F180073B505460C4681B98668D0F8980109F042
:104F2800F4FF0C490246304604F067F92046014672
:104F38002846FEF70DFD02B070BD01A91068FFF705
:104F4800FBFB0028F3D10199D5F8980109F0E2FF9D
:104F5800EDE700BFAF00040013B5044681B101A915
:104F68001068FFF7E9FB28B99DF80410D4F89801F8
:104F78001CF018FC01462046FEF7EAFC02B010BD02
:104F88000720F7E72DE9F04F044689B015460029B8
:104F98007ED07749106839F0AFFF0746002879D0EE
:104FA8007449286839F0A8FF00287BD0286802A92E
:104FB800FFF7C2FB0546002840F0D38003AF3A460E
:104FC800BDF80810D4F898011CF041FC05460028EB
:104FD80040F0C7809DF81C206749A06802F00102D4
:104FE80004F00BF99DF81C30DA0740F1BA809DF8FF
:104FF80016206249A06804F000F9BDF81420604941
:10500800A06804F0FAF89DF817205E49A06892029B
:1050180004F0F3F89DF81C205B49A068C2F3400235
:1050280004F0EBF89DF81C309B0740F19A80574933
:10503800A068DFF8948104F0E0F82E46BA5DA06815
:105048004146013604F0D9F8082EF7D15049A06836
:1050580004F0D3F89DF818204E49A06804F0CDF864
:105068009DF819204C49A06804F0C7F89DF81A204B
:105078004A49A06804F0C1F89DF81B204849A06877
:1050880004F0BBF86DE03246464904F0B6F85FE03C
:10509800072566E04449A06804F0AFF84349A068D2
:1050A80004F0ABF8D4F89801DFF824A1DFF824B1B4
:1050B8001CF0CBFB002581460DF10C08EEB24246F0
:1050C8003146D4F898011CF0C2FB002840D1A068F2
:1050D800002FD8D19DF81620514604F08EF8BDF85F
:1050E8001420A068594604F088F89DF81720304924
:1050F800A06804F082F89DF818202E49A06804F0F2
:105108007CF89DF819202C49A06804F076F89DF8E1
:105118001A202A49A06804F070F89DF81B20284935
:10512800A06804F06AF82749A06804F066F8264BDE
:105138003E4618F80620A06801931946013604F087
:105148005CF8082E019BF4D12049A06804F055F8BA
:105158000135EBB29945AFD20D49A06804F04DF87E
:10516800002529462046FEF7F3FB09B0BDE8F08F7D
:1051780094080400120D040062020400090B0400E4
:10518800B40004006E0204007F0204000E02040052
:10519800CD0D04008A020400240204003A0204002F
:1051A80051020400C80C040095020400E80204003F
:1051B800B3080400BA080400970004005B02040066
:1051C800AC080400DC0C040098FC0300E3020400B3
:1051D800E00C0400A208040073B505460C4679B932
:1051E8008668D0F898011CF0FDFA0C490246304652
:1051F80004F003F821462846FEF7AAFB02B070BD6A
:1052080001A91068FFF798FA04460028F2D19DF822
:105218000410D5F898011CF0E9FAEBE7AF00040098
:1052280073B505460C4679B98668D0F898011CF024
:10523800E1FA0F490246304603F0DFFF21462846CF
:10524800FEF786FB02B070BD01A91068FFF774FA7B
:1052580004460028F2D101994B1EFE2B05D8C9B28D
:10526800D5F898011CF0CAFAE8E70724E6E700BF7A
:10527800AF00040073B505460C4679B98668D0F8C6
:1052880098011CF087FA0C490246304603F0B5FF36
:1052980021462846FEF75CFB02B070BD01A91068E4
:1052A800FFF74AFA04460028F2D19DF80410D5F811
:1052B80098011CF073FAEBE7AF0004007FB50446D1
:1052C80016460D4679B32249106839F015FEF8B92B
:1052D800012D3BD903A97068FFF72EFA90B9BDF8E4
:1052E8000C501C49A06803F088FF1B49A06803F014
:1052F80084FF0094194BD4F898012A46002109F03C
:105308009BFE18B101462046FEF722FB04B070BD93
:1053180003A93068FFF710FA0028F3D1039B1F2B6D
:1053280012D801259D400E49A06803F066FF0D497B
:10533800A06803F062FF00940B4BD4F89801002298
:10534800294609F074FEDCE70720DBE70546C8E7D5
:105358004F0004005600040066000400C562000007
:10536800CE0704002708040095620000F0B58FB04E
:1053780003AF0E46044615467B232C2200213846EF
:10538800019339F064FD7EB31A49286839F0B4FDF9
:1053980060BB94F87F305BBB012E18D9696807A8F9
:1053A80008F022FCD8B9022E13D80EA9019BADF83B
:1053B8002E3041F8307D23460F4AD4F898011BF06F
:1053C8008CFA60B9012384F87F300FB0F0BD0B4927
:1053D800E5E701A9A868FFF7AFF90028E5D001467D
:1053E8002046FEF7B5FAF0E70720F8E72320F6E7AE
:1053F8000520F4E7760004000D6300007C0004003B
:1054080037B5054691B901A9D0F8980134F08EFC5A
:10541800044628B99DF904200C49A86803F0EDFE5C
:1054280021462846FEF794FA03B030BD01A910685A
:10543800FFF782F904460028F2D19DF90410D5F847
:10544800980134F07DFC0446EAE700BF0F2504000C
:1054580073B505460C4681B98668D0F898011CF0EA
:105468007CF90C490246304603F0C7FE2046014647
:105478002846FEF76DFA02B070BD01A91068FFF763
:105488005BF90028F3D1BDF80410D5F898011CF099
:1054980069F9ECE7AF0004002DE9F04302298BB06D
:1054A8000646884617463CD901A9506808F077FC9B
:1054B800002837D107F104090325694659F8040F74
:1054C800FFF73AF970BB05ABE9B22B448C1E009A82
:1054D80003F8032C4145E4B20ED31649386839F075
:1054E8000BFD70B9234605AA01A9D6F8980116F054
:1054F80072FA0BB0BDE8F0830135162DDDD1132407
:10550800EBE70D49386839F0F7FC80B9234605AA5E
:1055180001A9D6F8980116F063FA3046FEF7A4F808
:10552800E7E7072001463046FEF712FAE1E72320B5
:10553800F8E700BFF11F04004BFD030013B500227C
:105548000C4601A939F002FC019B20601B78002B56
:1055580014BF0720002002B010BD000073B5054637
:105568000C4699B98668D0F8980104F06BFC4FF4A2
:105578007A721049B0FBF2F2304603F03EFE204644
:1055880001462846FEF7E4F902B070BD01290ED1A4
:1055980001A91068FFF7D2FF0028F1D1019BD5F8C7
:1055A80098014FF47A71594304F051FCE8E7072059
:1055B800E6E700BFAF00040073B505460C4679B9AD
:1055C8008668D0F898011CF0C0F80C4902463046AD
:1055D80003F013FE21462846FEF7BAF902B070BD63
:1055E80001A91068FFF7AAFF04460028F2D1019923
:1055F800D5F898011CF0ADF8ECE700BFCF0B04001C
:10560800012913B5044610D101A91068FFF796FFC8
:1056180028B99DF80410D4F898011CF089F80146BF
:105628002046FEF795F902B010BD0720F7E70023E2
:1056380030B5136001394FF47A730A2411F8010F59
:10564800E8B1A0F13005092D11D8B3F57A7F02BF72
:1056580010686043106008781568303803FB005004
:10566800B3F57A7F1060E9D0B3FBF4F3E6E72E28B0
:1056780004D1B3F57A7F01D16423DFE7072030BD79
:10568800F8B59DF818500446164680680A460B4936
:105698001F4603F0B2FD4DB91EB131462046FEF754
:1056A800A1FF3A460649A06803F0A7FD294620460F
:1056B800FEF74EF9002384F84030F8BDD509040000
:1056C800EC09040010B49DF8044001945DF8044B03
:1056D800FFF7D6BF10B5044686B0A1B16946106879
:1056E80008F05DFB68B940238DF810309DF8113043
:1056F800D4F8980143F0030369468DF8113008F097
:1057080021FB06B010BD0720FBE71FB5044659B1C1
:105718006946106808F043FB20B96946D4F8980137
:1057280008F015FB04B010BD0720FBE770B505466F
:1057380016460C4689B9D0F898012C4E08F0FEFAA6
:105748000446002C38D021462846FEF74BFF314648
:10575800A86803F052FD6469F3E72549106839F039
:10576800CBFB58B9611E321DC9B22846FFF7B2FFFC
:1057780001462846BDE87040FEF7EAB81D49306882
:1057880039F0BAFB30B9611E321DC9B22846FFF79D
:10579800BCFFEDE71849306839F0AEFB044668B93C
:1057A800D5F898011BF0CCFE01462846FEF71AFFF3
:1057B8000E49A86803F021FD2046D9E70F49306853
:1057C80039F09AFB044620B9D5F898011BF0B0FED1
:1057D800EAE70B49306839F08FFB044620B9D5F861
:1057E80098011BF0A9FEDFE72320C1E7CD0D0400D7
:1057F8000F040400F5010400F90104000302040089
:10580800080204001FB5044659B16946106808F03B
:10581800C6FA20B96946D4F8980108F0A1FA04B08C
:1058280010BD0720FBE71FB5044659B1694610684B
:1058380008F0B5FA20B96946D4F8980108F095FA45
:1058480004B010BD0720FBE7F8B5054616460F461D
:1058580089B9D0F8980108F08DFA044630B1114999
:10586800A86803F0CAFC3C462046F8BD0E49A86863
:1058780003F0C3FCF8E70D49106839F03DFB044616
:1058880028B90121D5F8980108F078FAECE7084919
:10589800306839F031FB044608B90146F2E70724BD
:1058A800E2E700BF4E0C04005C030400580C04003F
:1058B8005F0C040070B5054616460C4681B9D0F851
:1058C80098011E4E08F048FA044694B3214628462B
:1058D800FEF788FE3146A86803F08FFC2469F4E7D8
:1058E8001749106839F008FB58B9611E321DC9B252
:1058F8002846FFF787FF01462846BDE87040FEF7B7
:1059080027B81049306839F0F7FA30B9611E321DEE
:10591800C9B22846FFF787FFEDE70B49306839F031
:10592800EBFA40B9611E321DC9B22846FFF78CFF59
:10593800E1E72046DFE72320DDE700BFCD0D0400C7
:105948000F040400F5010400010D04002DE9F341E2
:1059580098460023019398F80030812B04460E46A0
:10596800174641D1C38A002B3ED0B8F8042052BA5A
:1059780092B29A4238D108460EF02EFA05463046C1
:105988000EF02EFA281A82B208321949A06803F0DC
:1059980034FC07F110012046FEF724FEB8F8062073
:1059A80097F828301349A06852BA92B203F025FC40
:1059B80030460EF015FA042301460DEB030230467B
:1059C8000EF012FA04280BD1A56833F070F90646D8
:1059D8000198FDF72DFF0849321A284603F00DFCFF
:1059E8000649A06803F009FC02B0BDE8F08100BFD9
:1059F800F7090400060A04001C0A0400CD0D04007F
:105A0800FFF7A4BF30B58DB0044633F050F9FDF769
:105A18000FFF2C220090002101A839F018FA04F198
:105A280018030FCB05AD85E80F00237D8DF82C30CA
:105A3800627D9DF82D30D4F8980162F3410300216E
:105A48008DF82D3008F09EF9054688B10422694684
:105A58000EF0C8F9C0B9A18928460EF0BFF998B967
:105A6800E38AD4F8980101AA294607F0A0F958B9A1
:105A7800E389013B9BB2E38123B1216904F128004A
:105A88001CF016F90DB030BD28460EF0A3F9EFE76B
:105A98002DE9F34104461746884609B907250EE063
:105AA8001068374939F028FA04F128030546226BB3
:105AB80060B99342E0825CD018461CF0B5F82946DC
:105AC8002046FDF745FF02B0BDE8F081934252D170
